{
  "contractName": "Ecommerce",
  "abi": [
    {
      "constant": false,
      "inputs": [
        {
          "name": "id",
          "type": "uint256"
        },
        {
          "name": "purchaseAmount",
          "type": "uint256"
        },
        {
          "name": "merchantID",
          "type": "string"
        },
        {
          "name": "dateTimeofPurchase",
          "type": "uint256"
        },
        {
          "name": "paymentAmount",
          "type": "uint256"
        },
        {
          "name": "customerID",
          "type": "uint256"
        },
        {
          "name": "items",
          "type": "string"
        }
      ],
      "name": "addOrder",
      "outputs": [
        {
          "name": "success",
          "type": "bool"
        }
      ],
      "payable": false,
      "stateMutability": "nonpayable",
      "type": "function"
    },
    {
      "constant": true,
      "inputs": [
        {
          "name": "id",
          "type": "uint256"
        }
      ],
      "name": "getOrder",
      "outputs": [
        {
          "name": "purchaseAmount",
          "type": "uint256"
        },
        {
          "name": "merchantID",
          "type": "string"
        },
        {
          "name": "dateTimeofPurchase",
          "type": "uint256"
        },
        {
          "name": "paymentAmount",
          "type": "uint256"
        },
        {
          "name": "customerID",
          "type": "uint256"
        },
        {
          "name": "items",
          "type": "string"
        }
      ],
      "payable": false,
      "stateMutability": "view",
      "type": "function"
    },
    {
      "constant": false,
      "inputs": [
        {
          "name": "firstName",
          "type": "string"
        },
        {
          "name": "lastName",
          "type": "string"
        },
        {
          "name": "birthdate",
          "type": "uint256"
        },
        {
          "name": "customerID",
          "type": "uint256"
        },
        {
          "name": "gender",
          "type": "bytes8"
        }
      ],
      "name": "addCustomer",
      "outputs": [
        {
          "name": "success",
          "type": "bool"
        }
      ],
      "payable": false,
      "stateMutability": "nonpayable",
      "type": "function"
    },
    {
      "constant": true,
      "inputs": [
        {
          "name": "id",
          "type": "uint256"
        }
      ],
      "name": "getCustomer",
      "outputs": [
        {
          "name": "firstName",
          "type": "string"
        },
        {
          "name": "lastName",
          "type": "string"
        },
        {
          "name": "birthdate",
          "type": "uint256"
        },
        {
          "name": "customerID",
          "type": "uint256"
        },
        {
          "name": "gender",
          "type": "bytes8"
        }
      ],
      "payable": false,
      "stateMutability": "view",
      "type": "function"
    },
    {
      "constant": false,
      "inputs": [
        {
          "name": "name",
          "type": "string"
        },
        {
          "name": "merchantID",
          "type": "string"
        },
        {
          "name": "visa",
          "type": "string"
        },
        {
          "name": "salesPerson",
          "type": "string"
        },
        {
          "name": "bonusPayment",
          "type": "uint256"
        }
      ],
      "name": "addMerchant",
      "outputs": [
        {
          "name": "success",
          "type": "bool"
        }
      ],
      "payable": false,
      "stateMutability": "nonpayable",
      "type": "function"
    },
    {
      "constant": true,
      "inputs": [
        {
          "name": "id",
          "type": "string"
        }
      ],
      "name": "getMerchant",
      "outputs": [
        {
          "name": "name",
          "type": "string"
        },
        {
          "name": "merchantID",
          "type": "string"
        },
        {
          "name": "visa",
          "type": "string"
        },
        {
          "name": "salesPerson",
          "type": "string"
        },
        {
          "name": "bonusPayment",
          "type": "uint256"
        }
      ],
      "payable": false,
      "stateMutability": "view",
      "type": "function"
    }
  ],
  "bytecode": "0x608060405234801561001057600080fd5b50611621806100206000396000f300608060405260043610610078576000357c0100000000000000000000000000000000000000000000000000000000900463ffffffff16806355174af11461007d578063721d5ed31461017d578063c10b04e4146102da578063d09ef241146103d3578063e563ff4c14610501578063eb876f271461072e575b600080fd5b34801561008957600080fd5b50610163600480360381019080803590602001908201803590602001908080601f0160208091040260200160405190810160405280939291908181526020018383808284378201915050505050509192919290803590602001908201803590602001908080601f01602080910402602001604051908101604052809392919081815260200183838082843782019150505050505091929192908035906020019092919080359060200190929190803577ffffffffffffffffffffffffffffffffffffffffffffffff1916906020019092919050505061088b565b604051808215151515815260200191505060405180910390f35b34801561018957600080fd5b506102c0600480360381019080803590602001908201803590602001908080601f0160208091040260200160405190810160405280939291908181526020018383808284378201915050505050509192919290803590602001908201803590602001908080601f0160208091040260200160405190810160405280939291908181526020018383808284378201915050505050509192919290803590602001908201803590602001908080601f0160208091040260200160405190810160405280939291908181526020018383808284378201915050505050509192919290803590602001908201803590602001908080601f016020809104026020016040519081016040528093929190818152602001838380828437820191505050505050919291929080359060200190929190505050610975565b604051808215151515815260200191505060405180910390f35b3480156102e657600080fd5b506103b96004803603810190808035906020019092919080359060200190929190803590602001908201803590602001908080601f0160208091040260200160405190810160405280939291908181526020018383808284378201915050505050509192919290803590602001909291908035906020019092919080359060200190929190803590602001908201803590602001908080601f0160208091040260200160405190810160405280939291908181526020018383808284378201915050505050509192919290505050610c03565b604051808215151515815260200191505060405180910390f35b3480156103df57600080fd5b506103fe60048036038101908080359060200190929190505050610cd6565b604051808781526020018060200186815260200185815260200184815260200180602001838103835288818151815260200191508051906020019080838360005b8381101561045a57808201518184015260208101905061043f565b50505050905090810190601f1680156104875780820380516001836020036101000a031916815260200191505b50838103825284818151815260200191508051906020019080838360005b838110156104c05780820151818401526020810190506104a5565b50505050905090810190601f1680156104ed5780820380516001836020036101000a031916815260200191505b509850505050505050505060405180910390f35b34801561050d57600080fd5b50610568600480360381019080803590602001908201803590602001908080601f0160208091040260200160405190810160405280939291908181526020018383808284378201915050505050509192919290505050610eb6565b604051808060200180602001806020018060200186815260200185810385528a818151815260200191508051906020019080838360005b838110156105ba57808201518184015260208101905061059f565b50505050905090810190601f1680156105e75780820380516001836020036101000a031916815260200191505b50858103845289818151815260200191508051906020019080838360005b83811015610620578082015181840152602081019050610605565b50505050905090810190601f16801561064d5780820380516001836020036101000a031916815260200191505b50858103835288818151815260200191508051906020019080838360005b8381101561068657808201518184015260208101905061066b565b50505050905090810190601f1680156106b35780820380516001836020036101000a031916815260200191505b50858103825287818151815260200191508051906020019080838360005b838110156106ec5780820151818401526020810190506106d1565b50505050905090810190601f1680156107195780820380516001836020036101000a031916815260200191505b50995050505050505050505060405180910390f35b34801561073a57600080fd5b5061075960048036038101908080359060200190929190505050611367565b6040518080602001806020018681526020018581526020018477ffffffffffffffffffffffffffffffffffffffffffffffff191677ffffffffffffffffffffffffffffffffffffffffffffffff19168152602001838103835288818151815260200191508051906020019080838360005b838110156107e55780820151818401526020810190506107ca565b50505050905090810190601f1680156108125780820380516001836020036101000a031916815260200191505b50838103825287818151815260200191508051906020019080838360005b8381101561084b578082015181840152602081019050610830565b50505050905090810190601f1680156108785780820380516001836020036101000a031916815260200191505b5097505050505050505060405180910390f35b6000856001600085815260200190815260200160002060000190805190602001906108b7929190611550565b50846001600085815260200190815260200160002060010190805190602001906108e2929190611550565b50836001600085815260200190815260200160002060020181905550826001600085815260200190815260200160002060030181905550816001600085815260200190815260200160002060040160006101000a81548167ffffffffffffffff02191690837801000000000000000000000000000000000000000000000000900402179055506001905095945050505050565b6000856000866040518082805190602001908083835b6020831015156109b0578051825260208201915060208101905060208303925061098b565b6001836020036101000a038019825116818451168082178552505050505050905001915050908152602001604051809103902060000190805190602001906109f9929190611550565b50846000866040518082805190602001908083835b602083101515610a335780518252602082019150602081019050602083039250610a0e565b6001836020036101000a03801982511681845116808217855250505050505090500191505090815260200160405180910390206001019080519060200190610a7c929190611550565b50836000866040518082805190602001908083835b602083101515610ab65780518252602082019150602081019050602083039250610a91565b6001836020036101000a03801982511681845116808217855250505050505090500191505090815260200160405180910390206002019080519060200190610aff929190611550565b50826000866040518082805190602001908083835b602083101515610b395780518252602082019150602081019050602083039250610b14565b6001836020036101000a03801982511681845116808217855250505050505090500191505090815260200160405180910390206003019080519060200190610b82929190611550565b50816000866040518082805190602001908083835b602083101515610bbc5780518252602082019150602081019050602083039250610b97565b6001836020036101000a0380198251168184511680821785525050505050509050019150509081526020016040518091039020600401819055506001905095945050505050565b600082600260008a81526020019081526020016000206000018190555085600260008a81526020019081526020016000206001019080519060200190610c4a929190611550565b5086600260008a81526020019081526020016000206002018190555084600260008a81526020019081526020016000206003018190555083600260008a81526020019081526020016000206004018190555081600260008a81526020019081526020016000206005019080519060200190610cc6929190611550565b5060019050979650505050505050565b6000606060008060006060600260008881526020019081526020016000206002015460026000898152602001908152602001600020600101600260008a815260200190815260200160002060000154600260008b815260200190815260200160002060030154600260008c815260200190815260200160002060040154600260008d8152602001908152602001600020600501848054600181600116156101000203166002900480601f016020809104026020016040519081016040528092919081815260200182805460018160011615610100020316600290048015610dfe5780601f10610dd357610100808354040283529160200191610dfe565b820191906000526020600020905b815481529060010190602001808311610de157829003601f168201915b50505050509450808054600181600116156101000203166002900480601f016020809104026020016040519081016040528092919081815260200182805460018160011615610100020316600290048015610e9a5780601f10610e6f57610100808354040283529160200191610e9a565b820191906000526020600020905b815481529060010190602001808311610e7d57829003601f168201915b5050505050905095509550955095509550955091939550919395565b606080606080600080866040518082805190602001908083835b602083101515610ef55780518252602082019150602081019050602083039250610ed0565b6001836020036101000a03801982511681845116808217855250505050505090500191505090815260200160405180910390206000016000876040518082805190602001908083835b602083101515610f635780518252602082019150602081019050602083039250610f3e565b6001836020036101000a03801982511681845116808217855250505050505090500191505090815260200160405180910390206001016000886040518082805190602001908083835b602083101515610fd15780518252602082019150602081019050602083039250610fac565b6001836020036101000a03801982511681845116808217855250505050505090500191505090815260200160405180910390206002016000896040518082805190602001908083835b60208310151561103f578051825260208201915060208101905060208303925061101a565b6001836020036101000a038019825116818451168082178552505050505050905001915050908152602001604051809103902060030160008a6040518082805190602001908083835b6020831015156110ad5780518252602082019150602081019050602083039250611088565b6001836020036101000a038019825116818451168082178552505050505050905001915050908152602001604051809103902060040154848054600181600116156101000203166002900480601f0160208091040260200160405190810160405280929190818152602001828054600181600116156101000203166002900480156111795780601f1061114e57610100808354040283529160200191611179565b820191906000526020600020905b81548152906001019060200180831161115c57829003601f168201915b50505050509450838054600181600116156101000203166002900480601f0160208091040260200160405190810160405280929190818152602001828054600181600116156101000203166002900480156112155780601f106111ea57610100808354040283529160200191611215565b820191906000526020600020905b8154815290600101906020018083116111f857829003601f168201915b50505050509350828054600181600116156101000203166002900480601f0160208091040260200160405190810160405280929190818152602001828054600181600116156101000203166002900480156112b15780601f10611286576101008083540402835291602001916112b1565b820191906000526020600020905b81548152906001019060200180831161129457829003601f168201915b50505050509250818054600181600116156101000203166002900480601f01602080910402602001604051908101604052809291908181526020018280546001816001161561010002031660029004801561134d5780601f106113225761010080835404028352916020019161134d565b820191906000526020600020905b81548152906001019060200180831161133057829003601f168201915b505050505091509450945094509450945091939590929450565b606080600080600060016000878152602001908152602001600020600001600160008881526020019081526020016000206001016001600089815260200190815260200160002060020154600160008a815260200190815260200160002060030154600160008b815260200190815260200160002060040160009054906101000a9004780100000000000000000000000000000000000000000000000002848054600181600116156101000203166002900480601f01602080910402602001604051908101604052809291908181526020018280546001816001161561010002031660029004801561149a5780601f1061146f5761010080835404028352916020019161149a565b820191906000526020600020905b81548152906001019060200180831161147d57829003601f168201915b50505050509450838054600181600116156101000203166002900480601f0160208091040260200160405190810160405280929190818152602001828054600181600116156101000203166002900480156115365780601f1061150b57610100808354040283529160200191611536565b820191906000526020600020905b81548152906001019060200180831161151957829003601f168201915b505050505093509450945094509450945091939590929450565b828054600181600116156101000203166002900490600052602060002090601f016020900481019282601f1061159157805160ff19168380011785556115bf565b828001600101855582156115bf579182015b828111156115be5782518255916020019190600101906115a3565b5b5090506115cc91906115d0565b5090565b6115f291905b808211156115ee5760008160009055506001016115d6565b5090565b905600a165627a7a72305820252ef5e2571530b4d7db03573bc6602297ce3dbb56f8946075f0de51111fec200029",
  "source": "pragma solidity >=0.4.22 <0.6.0;\n\ncontract Ecommerce {\n\n    struct Customer {\n        string firstName;\n        string lastName;\n        uint256 birthdate;\n        uint customerID;\n        bytes8 gender;\n    }\n    struct Merchant {\n        string name;\n        string merchantID;\n        string visa;\n        string salesPerson;\n        uint bonusPayment;\n    }\n\n    struct Order {\n        uint customerID;\n        string merchantID;\n        uint purchaseAmount;\n        uint256 dateTimeofPurchase;\n        uint paymentAmount;\n        string items;\n    }\n\n    mapping(string => Merchant) merchants;\n    mapping(uint => Customer) customers;\n    mapping(uint => Order) orders;\n\n    function addOrder(\n        uint id,\n        uint purchaseAmount,\n        string memory merchantID,\n        uint256 dateTimeofPurchase,\n        uint paymentAmount,\n        uint customerID,\n        string memory items) public returns(bool success) {\n      orders[id].customerID = customerID;\n      orders[id].merchantID = merchantID;\n      orders[id].purchaseAmount = purchaseAmount;\n      orders[id].dateTimeofPurchase = dateTimeofPurchase;\n      orders[id].paymentAmount = paymentAmount;\n      orders[id].items = items;\n      return true;\n     }\n\n    function getOrder(uint id) public view returns(uint purchaseAmount,\n        string memory merchantID,\n        uint256 dateTimeofPurchase,\n        uint paymentAmount,\n        uint customerID,\n        string memory items) {\n      return(orders[id].purchaseAmount,\n      orders[id].merchantID,\n      orders[id].customerID,\n      orders[id].dateTimeofPurchase,\n      orders[id].paymentAmount,\n      orders[id].items);\n    }\n\n    function addCustomer(string memory firstName,\n      string memory lastName,\n      uint256 birthdate,\n      uint customerID,\n      bytes8 gender) public returns(bool success){\n      customers[customerID].firstName = firstName;\n      customers[customerID].lastName = lastName;\n      customers[customerID].birthdate = birthdate;\n      customers[customerID].customerID = customerID;\n      customers[customerID].gender = gender;\n      return true;\n    }\n\n    function getCustomer(uint id) public view returns(string memory firstName,\n      string memory lastName,\n      uint256 birthdate,\n      uint customerID,\n      bytes8 gender) {\n        return(customers[id].firstName,\n        customers[id].lastName,\n        customers[id].birthdate,\n        customers[id].customerID,\n        customers[id].gender);\n      }\n\n    function addMerchant(string memory name,\n      string memory merchantID,\n      string memory visa,\n      string memory salesPerson,\n      uint bonusPayment) public returns(bool success){\n        merchants[merchantID].name = name;\n        merchants[merchantID].merchantID = merchantID;\n        merchants[merchantID].visa = visa;\n        merchants[merchantID].salesPerson = salesPerson;\n        merchants[merchantID].bonusPayment = bonusPayment;\n        return true;\n    }\n\n    function getMerchant(string memory id) public view returns(string memory name,\n      string memory merchantID,\n      string memory visa,\n      string memory salesPerson,\n      uint bonusPayment) {\n        return(merchants[id].name,\n        merchants[id].merchantID,\n        merchants[id].visa,\n        merchants[id].salesPerson,\n        merchants[id].bonusPayment);\n      }\n}\n",
  "sourcePath": "/Users/sibizulu/Code/truffle/contracts/ecommerce.sol",
  "compiler": {
    "name": "solc",
    "version": "0.4.24+commit.e67f0147.Emscripten.clang"
  },
  "schemaVersion": "2.0.1",
  "updatedAt": "2018-12-27T10:58:56.736Z"
}