{
  "contractName": "Ecommerce",
  "abi": [
    {
      "constant": false,
      "inputs": [
        {
          "name": "id",
          "type": "string"
        },
        {
          "name": "purchaseAmount",
          "type": "string"
        },
        {
          "name": "merchantID",
          "type": "string"
        },
        {
          "name": "dateTimeofPurchase",
          "type": "string"
        },
        {
          "name": "paymentAmount",
          "type": "string"
        },
        {
          "name": "customerID",
          "type": "string"
        },
        {
          "name": "items",
          "type": "string"
        }
      ],
      "name": "addOrder",
      "outputs": [
        {
          "name": "success",
          "type": "bool"
        }
      ],
      "payable": false,
      "stateMutability": "nonpayable",
      "type": "function"
    },
    {
      "constant": true,
      "inputs": [
        {
          "name": "id",
          "type": "string"
        }
      ],
      "name": "getOrder",
      "outputs": [
        {
          "name": "purchaseAmount",
          "type": "string"
        },
        {
          "name": "merchantID",
          "type": "string"
        },
        {
          "name": "customerID",
          "type": "string"
        },
        {
          "name": "dateTimeofPurchase",
          "type": "string"
        },
        {
          "name": "paymentAmount",
          "type": "string"
        },
        {
          "name": "items",
          "type": "string"
        }
      ],
      "payable": false,
      "stateMutability": "view",
      "type": "function"
    },
    {
      "constant": false,
      "inputs": [
        {
          "name": "firstName",
          "type": "string"
        },
        {
          "name": "lastName",
          "type": "string"
        },
        {
          "name": "birthdate",
          "type": "string"
        },
        {
          "name": "customerID",
          "type": "string"
        },
        {
          "name": "gender",
          "type": "string"
        }
      ],
      "name": "addCustomer",
      "outputs": [
        {
          "name": "success",
          "type": "bool"
        }
      ],
      "payable": false,
      "stateMutability": "nonpayable",
      "type": "function"
    },
    {
      "constant": true,
      "inputs": [
        {
          "name": "id",
          "type": "string"
        }
      ],
      "name": "getCustomer",
      "outputs": [
        {
          "name": "firstName",
          "type": "string"
        },
        {
          "name": "lastName",
          "type": "string"
        },
        {
          "name": "birthdate",
          "type": "string"
        },
        {
          "name": "customerID",
          "type": "string"
        },
        {
          "name": "gender",
          "type": "string"
        }
      ],
      "payable": false,
      "stateMutability": "view",
      "type": "function"
    },
    {
      "constant": false,
      "inputs": [
        {
          "name": "name",
          "type": "string"
        },
        {
          "name": "merchantID",
          "type": "string"
        },
        {
          "name": "visa",
          "type": "string"
        },
        {
          "name": "salesPerson",
          "type": "string"
        },
        {
          "name": "bonusPayment",
          "type": "string"
        }
      ],
      "name": "addMerchant",
      "outputs": [
        {
          "name": "success",
          "type": "bool"
        }
      ],
      "payable": false,
      "stateMutability": "nonpayable",
      "type": "function"
    },
    {
      "constant": true,
      "inputs": [
        {
          "name": "id",
          "type": "string"
        }
      ],
      "name": "getMerchant",
      "outputs": [
        {
          "name": "name",
          "type": "string"
        },
        {
          "name": "merchantID",
          "type": "string"
        },
        {
          "name": "visa",
          "type": "string"
        },
        {
          "name": "salesPerson",
          "type": "string"
        },
        {
          "name": "bonusPayment",
          "type": "string"
        }
      ],
      "payable": false,
      "stateMutability": "view",
      "type": "function"
    }
  ],
  "bytecode": "0x608060405234801561001057600080fd5b5061281a806100206000396000f300608060405260043610610078576000357c0100000000000000000000000000000000000000000000000000000000900463ffffffff168063518bddd91461007d57806360c4f5061461030f578063712ca0f814610534578063e2752e4514610832578063e563ff4c146109cb578063f1923a8a14610c5d575b600080fd5b34801561008957600080fd5b506100e4600480360381019080803590602001908201803590602001908080601f0160208091040260200160405190810160405280939291908181526020018383808284378201915050505050509192919290505050610df6565b60405180806020018060200180602001806020018060200186810386528b818151815260200191508051906020019080838360005b83811015610134578082015181840152602081019050610119565b50505050905090810190601f1680156101615780820380516001836020036101000a031916815260200191505b5086810385528a818151815260200191508051906020019080838360005b8381101561019a57808201518184015260208101905061017f565b50505050905090810190601f1680156101c75780820380516001836020036101000a031916815260200191505b50868103845289818151815260200191508051906020019080838360005b838110156102005780820151818401526020810190506101e5565b50505050905090810190601f16801561022d5780820380516001836020036101000a031916815260200191505b50868103835288818151815260200191508051906020019080838360005b8381101561026657808201518184015260208101905061024b565b50505050905090810190601f1680156102935780820380516001836020036101000a031916815260200191505b50868103825287818151815260200191508051906020019080838360005b838110156102cc5780820151818401526020810190506102b1565b50505050905090810190601f1680156102f95780820380516001836020036101000a031916815260200191505b509a505050505050505050505060405180910390f35b34801561031b57600080fd5b5061051a600480360381019080803590602001908201803590602001908080601f0160208091040260200160405190810160405280939291908181526020018383808284378201915050505050509192919290803590602001908201803590602001908080601f0160208091040260200160405190810160405280939291908181526020018383808284378201915050505050509192919290803590602001908201803590602001908080601f0160208091040260200160405190810160405280939291908181526020018383808284378201915050505050509192919290803590602001908201803590602001908080601f0160208091040260200160405190810160405280939291908181526020018383808284378201915050505050509192919290803590602001908201803590602001908080601f0160208091040260200160405190810160405280939291908181526020018383808284378201915050505050509192919290803590602001908201803590602001908080601f0160208091040260200160405190810160405280939291908181526020018383808284378201915050505050509192919290803590602001908201803590602001908080601f0160208091040260200160405190810160405280939291908181526020018383808284378201915050505050509192919290505050611343565b604051808215151515815260200191505060405180910390f35b34801561054057600080fd5b5061059b600480360381019080803590602001908201803590602001908080601f0160208091040260200160405190810160405280939291908181526020018383808284378201915050505050509192919290505050611666565b6040518080602001806020018060200180602001806020018060200187810387528d818151815260200191508051906020019080838360005b838110156105ef5780820151818401526020810190506105d4565b50505050905090810190601f16801561061c5780820380516001836020036101000a031916815260200191505b5087810386528c818151815260200191508051906020019080838360005b8381101561065557808201518184015260208101905061063a565b50505050905090810190601f1680156106825780820380516001836020036101000a031916815260200191505b5087810385528b818151815260200191508051906020019080838360005b838110156106bb5780820151818401526020810190506106a0565b50505050905090810190601f1680156106e85780820380516001836020036101000a031916815260200191505b5087810384528a818151815260200191508051906020019080838360005b83811015610721578082015181840152602081019050610706565b50505050905090810190601f16801561074e5780820380516001836020036101000a031916815260200191505b50878103835289818151815260200191508051906020019080838360005b8381101561078757808201518184015260208101905061076c565b50505050905090810190601f1680156107b45780820380516001836020036101000a031916815260200191505b50878103825288818151815260200191508051906020019080838360005b838110156107ed5780820151818401526020810190506107d2565b50505050905090810190601f16801561081a5780820380516001836020036101000a031916815260200191505b509c5050505050505050505050505060405180910390f35b34801561083e57600080fd5b506109b1600480360381019080803590602001908201803590602001908080601f0160208091040260200160405190810160405280939291908181526020018383808284378201915050505050509192919290803590602001908201803590602001908080601f0160208091040260200160405190810160405280939291908181526020018383808284378201915050505050509192919290803590602001908201803590602001908080601f0160208091040260200160405190810160405280939291908181526020018383808284378201915050505050509192919290803590602001908201803590602001908080601f0160208091040260200160405190810160405280939291908181526020018383808284378201915050505050509192919290803590602001908201803590602001908080601f0160208091040260200160405190810160405280939291908181526020018383808284378201915050505050509192919290505050611cc0565b604051808215151515815260200191505060405180910390f35b3480156109d757600080fd5b50610a32600480360381019080803590602001908201803590602001908080601f0160208091040260200160405190810160405280939291908181526020018383808284378201915050505050509192919290505050611f5e565b60405180806020018060200180602001806020018060200186810386528b818151815260200191508051906020019080838360005b83811015610a82578082015181840152602081019050610a67565b50505050905090810190601f168015610aaf5780820380516001836020036101000a031916815260200191505b5086810385528a818151815260200191508051906020019080838360005b83811015610ae8578082015181840152602081019050610acd565b50505050905090810190601f168015610b155780820380516001836020036101000a031916815260200191505b50868103845289818151815260200191508051906020019080838360005b83811015610b4e578082015181840152602081019050610b33565b50505050905090810190601f168015610b7b5780820380516001836020036101000a031916815260200191505b50868103835288818151815260200191508051906020019080838360005b83811015610bb4578082015181840152602081019050610b99565b50505050905090810190601f168015610be15780820380516001836020036101000a031916815260200191505b50868103825287818151815260200191508051906020019080838360005b83811015610c1a578082015181840152602081019050610bff565b50505050905090810190601f168015610c475780820380516001836020036101000a031916815260200191505b509a505050505050505050505060405180910390f35b348015610c6957600080fd5b50610ddc600480360381019080803590602001908201803590602001908080601f0160208091040260200160405190810160405280939291908181526020018383808284378201915050505050509192919290803590602001908201803590602001908080601f0160208091040260200160405190810160405280939291908181526020018383808284378201915050505050509192919290803590602001908201803590602001908080601f0160208091040260200160405190810160405280939291908181526020018383808284378201915050505050509192919290803590602001908201803590602001908080601f0160208091040260200160405190810160405280939291908181526020018383808284378201915050505050509192919290803590602001908201803590602001908080601f01602080910402602001604051908101604052809392919081815260200183838082843782019150505050505091929192905050506124ab565b604051808215151515815260200191505060405180910390f35b60608060608060606001866040518082805190602001908083835b602083101515610e365780518252602082019150602081019050602083039250610e11565b6001836020036101000a03801982511681845116808217855250505050505090500191505090815260200160405180910390206000016001876040518082805190602001908083835b602083101515610ea45780518252602082019150602081019050602083039250610e7f565b6001836020036101000a03801982511681845116808217855250505050505090500191505090815260200160405180910390206001016001886040518082805190602001908083835b602083101515610f125780518252602082019150602081019050602083039250610eed565b6001836020036101000a03801982511681845116808217855250505050505090500191505090815260200160405180910390206002016001896040518082805190602001908083835b602083101515610f805780518252602082019150602081019050602083039250610f5b565b6001836020036101000a038019825116818451168082178552505050505050905001915050908152602001604051809103902060030160018a6040518082805190602001908083835b602083101515610fee5780518252602082019150602081019050602083039250610fc9565b6001836020036101000a0380198251168184511680821785525050505050509050019150509081526020016040518091039020600401848054600181600116156101000203166002900480601f0160208091040260200160405190810160405280929190818152602001828054600181600116156101000203166002900480156110b95780601f1061108e576101008083540402835291602001916110b9565b820191906000526020600020905b81548152906001019060200180831161109c57829003601f168201915b50505050509450838054600181600116156101000203166002900480601f0160208091040260200160405190810160405280929190818152602001828054600181600116156101000203166002900480156111555780601f1061112a57610100808354040283529160200191611155565b820191906000526020600020905b81548152906001019060200180831161113857829003601f168201915b50505050509350828054600181600116156101000203166002900480601f0160208091040260200160405190810160405280929190818152602001828054600181600116156101000203166002900480156111f15780601f106111c6576101008083540402835291602001916111f1565b820191906000526020600020905b8154815290600101906020018083116111d457829003601f168201915b50505050509250818054600181600116156101000203166002900480601f01602080910402602001604051908101604052809291908181526020018280546001816001161561010002031660029004801561128d5780601f106112625761010080835404028352916020019161128d565b820191906000526020600020905b81548152906001019060200180831161127057829003601f168201915b50505050509150808054600181600116156101000203166002900480601f0160208091040260200160405190810160405280929190818152602001828054600181600116156101000203166002900480156113295780601f106112fe57610100808354040283529160200191611329565b820191906000526020600020905b81548152906001019060200180831161130c57829003601f168201915b505050505090509450945094509450945091939590929450565b6000826002896040518082805190602001908083835b60208310151561137e5780518252602082019150602081019050602083039250611359565b6001836020036101000a038019825116818451168082178552505050505050905001915050908152602001604051809103902060000190805190602001906113c7929190612749565b50856002896040518082805190602001908083835b60208310151561140157805182526020820191506020810190506020830392506113dc565b6001836020036101000a0380198251168184511680821785525050505050509050019150509081526020016040518091039020600101908051906020019061144a929190612749565b50866002896040518082805190602001908083835b602083101515611484578051825260208201915060208101905060208303925061145f565b6001836020036101000a038019825116818451168082178552505050505050905001915050908152602001604051809103902060020190805190602001906114cd929190612749565b50846002896040518082805190602001908083835b60208310151561150757805182526020820191506020810190506020830392506114e2565b6001836020036101000a03801982511681845116808217855250505050505090500191505090815260200160405180910390206003019080519060200190611550929190612749565b50836002896040518082805190602001908083835b60208310151561158a5780518252602082019150602081019050602083039250611565565b6001836020036101000a038019825116818451168082178552505050505050905001915050908152602001604051809103902060040190805190602001906115d3929190612749565b50816002896040518082805190602001908083835b60208310151561160d57805182526020820191506020810190506020830392506115e8565b6001836020036101000a03801982511681845116808217855250505050505090500191505090815260200160405180910390206005019080519060200190611656929190612749565b5060019050979650505050505050565b6060806060806060806002876040518082805190602001908083835b6020831015156116a75780518252602082019150602081019050602083039250611682565b6001836020036101000a03801982511681845116808217855250505050505090500191505090815260200160405180910390206002016002886040518082805190602001908083835b60208310151561171557805182526020820191506020810190506020830392506116f0565b6001836020036101000a03801982511681845116808217855250505050505090500191505090815260200160405180910390206001016002896040518082805190602001908083835b602083101515611783578051825260208201915060208101905060208303925061175e565b6001836020036101000a038019825116818451168082178552505050505050905001915050908152602001604051809103902060000160028a6040518082805190602001908083835b6020831015156117f157805182526020820191506020810190506020830392506117cc565b6001836020036101000a038019825116818451168082178552505050505050905001915050908152602001604051809103902060030160028b6040518082805190602001908083835b60208310151561185f578051825260208201915060208101905060208303925061183a565b6001836020036101000a038019825116818451168082178552505050505050905001915050908152602001604051809103902060040160028c6040518082805190602001908083835b6020831015156118cd57805182526020820191506020810190506020830392506118a8565b6001836020036101000a0380198251168184511680821785525050505050509050019150509081526020016040518091039020600501858054600181600116156101000203166002900480601f0160208091040260200160405190810160405280929190818152602001828054600181600116156101000203166002900480156119985780601f1061196d57610100808354040283529160200191611998565b820191906000526020600020905b81548152906001019060200180831161197b57829003601f168201915b50505050509550848054600181600116156101000203166002900480601f016020809104026020016040519081016040528092919081815260200182805460018160011615610100020316600290048015611a345780601f10611a0957610100808354040283529160200191611a34565b820191906000526020600020905b815481529060010190602001808311611a1757829003601f168201915b50505050509450838054600181600116156101000203166002900480601f016020809104026020016040519081016040528092919081815260200182805460018160011615610100020316600290048015611ad05780601f10611aa557610100808354040283529160200191611ad0565b820191906000526020600020905b815481529060010190602001808311611ab357829003601f168201915b50505050509350828054600181600116156101000203166002900480601f016020809104026020016040519081016040528092919081815260200182805460018160011615610100020316600290048015611b6c5780601f10611b4157610100808354040283529160200191611b6c565b820191906000526020600020905b815481529060010190602001808311611b4f57829003601f168201915b50505050509250818054600181600116156101000203166002900480601f016020809104026020016040519081016040528092919081815260200182805460018160011615610100020316600290048015611c085780601f10611bdd57610100808354040283529160200191611c08565b820191906000526020600020905b815481529060010190602001808311611beb57829003601f168201915b50505050509150808054600181600116156101000203166002900480601f016020809104026020016040519081016040528092919081815260200182805460018160011615610100020316600290048015611ca45780601f10611c7957610100808354040283529160200191611ca4565b820191906000526020600020905b815481529060010190602001808311611c8757829003601f168201915b5050505050905095509550955095509550955091939550919395565b6000856000866040518082805190602001908083835b602083101515611cfb5780518252602082019150602081019050602083039250611cd6565b6001836020036101000a03801982511681845116808217855250505050505090500191505090815260200160405180910390206000019080519060200190611d44929190612749565b50846000866040518082805190602001908083835b602083101515611d7e5780518252602082019150602081019050602083039250611d59565b6001836020036101000a03801982511681845116808217855250505050505090500191505090815260200160405180910390206001019080519060200190611dc7929190612749565b50836000866040518082805190602001908083835b602083101515611e015780518252602082019150602081019050602083039250611ddc565b6001836020036101000a03801982511681845116808217855250505050505090500191505090815260200160405180910390206002019080519060200190611e4a929190612749565b50826000866040518082805190602001908083835b602083101515611e845780518252602082019150602081019050602083039250611e5f565b6001836020036101000a03801982511681845116808217855250505050505090500191505090815260200160405180910390206003019080519060200190611ecd929190612749565b50816000866040518082805190602001908083835b602083101515611f075780518252602082019150602081019050602083039250611ee2565b6001836020036101000a03801982511681845116808217855250505050505090500191505090815260200160405180910390206004019080519060200190611f50929190612749565b506001905095945050505050565b60608060608060606000866040518082805190602001908083835b602083101515611f9e5780518252602082019150602081019050602083039250611f79565b6001836020036101000a03801982511681845116808217855250505050505090500191505090815260200160405180910390206000016000876040518082805190602001908083835b60208310151561200c5780518252602082019150602081019050602083039250611fe7565b6001836020036101000a03801982511681845116808217855250505050505090500191505090815260200160405180910390206001016000886040518082805190602001908083835b60208310151561207a5780518252602082019150602081019050602083039250612055565b6001836020036101000a03801982511681845116808217855250505050505090500191505090815260200160405180910390206002016000896040518082805190602001908083835b6020831015156120e857805182526020820191506020810190506020830392506120c3565b6001836020036101000a038019825116818451168082178552505050505050905001915050908152602001604051809103902060030160008a6040518082805190602001908083835b6020831015156121565780518252602082019150602081019050602083039250612131565b6001836020036101000a0380198251168184511680821785525050505050509050019150509081526020016040518091039020600401848054600181600116156101000203166002900480601f0160208091040260200160405190810160405280929190818152602001828054600181600116156101000203166002900480156122215780601f106121f657610100808354040283529160200191612221565b820191906000526020600020905b81548152906001019060200180831161220457829003601f168201915b50505050509450838054600181600116156101000203166002900480601f0160208091040260200160405190810160405280929190818152602001828054600181600116156101000203166002900480156122bd5780601f10612292576101008083540402835291602001916122bd565b820191906000526020600020905b8154815290600101906020018083116122a057829003601f168201915b50505050509350828054600181600116156101000203166002900480601f0160208091040260200160405190810160405280929190818152602001828054600181600116156101000203166002900480156123595780601f1061232e57610100808354040283529160200191612359565b820191906000526020600020905b81548152906001019060200180831161233c57829003601f168201915b50505050509250818054600181600116156101000203166002900480601f0160208091040260200160405190810160405280929190818152602001828054600181600116156101000203166002900480156123f55780601f106123ca576101008083540402835291602001916123f5565b820191906000526020600020905b8154815290600101906020018083116123d857829003601f168201915b50505050509150808054600181600116156101000203166002900480601f0160208091040260200160405190810160405280929190818152602001828054600181600116156101000203166002900480156124915780601f1061246657610100808354040283529160200191612491565b820191906000526020600020905b81548152906001019060200180831161247457829003601f168201915b505050505090509450945094509450945091939590929450565b6000856001846040518082805190602001908083835b6020831015156124e657805182526020820191506020810190506020830392506124c1565b6001836020036101000a0380198251168184511680821785525050505050509050019150509081526020016040518091039020600001908051906020019061252f929190612749565b50846001846040518082805190602001908083835b6020831015156125695780518252602082019150602081019050602083039250612544565b6001836020036101000a038019825116818451168082178552505050505050905001915050908152602001604051809103902060010190805190602001906125b2929190612749565b50836001846040518082805190602001908083835b6020831015156125ec57805182526020820191506020810190506020830392506125c7565b6001836020036101000a03801982511681845116808217855250505050505090500191505090815260200160405180910390206002019080519060200190612635929190612749565b50826001846040518082805190602001908083835b60208310151561266f578051825260208201915060208101905060208303925061264a565b6001836020036101000a038019825116818451168082178552505050505050905001915050908152602001604051809103902060030190805190602001906126b8929190612749565b50816001846040518082805190602001908083835b6020831015156126f257805182526020820191506020810190506020830392506126cd565b6001836020036101000a0380198251168184511680821785525050505050509050019150509081526020016040518091039020600401908051906020019061273b929190612749565b506001905095945050505050565b828054600181600116156101000203166002900490600052602060002090601f016020900481019282601f1061278a57805160ff19168380011785556127b8565b828001600101855582156127b8579182015b828111156127b757825182559160200191906001019061279c565b5b5090506127c591906127c9565b5090565b6127eb91905b808211156127e75760008160009055506001016127cf565b5090565b905600a165627a7a723058203f59435ef74d3887f5e4d7bd5585dc1706971f4b93ae1e7de5fafb55fcca5c200029",
  "source": "pragma solidity >=0.4.22 <0.6.0;\n\ncontract Ecommerce {\n\n    struct Customer {\n        string firstName;\n        string lastName;\n        string birthdate;\n        string customerID;\n        string gender;\n    }\n    struct Merchant {\n        string name;\n        string merchantID;\n        string visa;\n        string salesPerson;\n        string bonusPayment;\n    }\n\n    struct Order {\n        string customerID;\n        string merchantID;\n        string purchaseAmount;\n        string dateTimeofPurchase;\n        string paymentAmount;\n        string items;\n    }\n\n    mapping(string => Merchant) merchants;\n    mapping(string => Customer) customers;\n    mapping(string => Order) orders;\n\n    function addOrder(\n        string memory id,\n        string memory purchaseAmount,\n        string memory merchantID,\n        string memory dateTimeofPurchase,\n        string memory paymentAmount,\n        string memory customerID,\n        string memory items) public returns(bool success) {\n      orders[id].customerID = customerID;\n      orders[id].merchantID = merchantID;\n      orders[id].purchaseAmount = purchaseAmount;\n      orders[id].dateTimeofPurchase = dateTimeofPurchase;\n      orders[id].paymentAmount = paymentAmount;\n      orders[id].items = items;\n      return true;\n     }\n\n    function getOrder(string memory id) public view returns(string memory purchaseAmount,\n        string memory merchantID,\n        string memory customerID,\n        string memory dateTimeofPurchase,\n        string memory paymentAmount,\n        string memory items) {\n      return(orders[id].purchaseAmount,\n      orders[id].merchantID,\n      orders[id].customerID,\n      orders[id].dateTimeofPurchase,\n      orders[id].paymentAmount,\n      orders[id].items);\n    }\n\n    function addCustomer(string memory firstName,\n      string memory lastName,\n      string memory birthdate,\n      string memory customerID,\n      string memory gender) public returns(bool success){\n      customers[customerID].firstName = firstName;\n      customers[customerID].lastName = lastName;\n      customers[customerID].birthdate = birthdate;\n      customers[customerID].customerID = customerID;\n      customers[customerID].gender = gender;\n      return true;\n    }\n\n    function getCustomer(string memory id) public view returns(string memory firstName,\n      string memory lastName,\n      string memory birthdate,\n      string memory customerID,\n      string memory gender) {\n        return(customers[id].firstName,\n        customers[id].lastName,\n        customers[id].birthdate,\n        customers[id].customerID,\n        customers[id].gender);\n      }\n\n    function addMerchant(string memory name,\n      string memory merchantID,\n      string memory visa,\n      string memory salesPerson,\n      string memory bonusPayment) public returns(bool success){\n        merchants[merchantID].name = name;\n        merchants[merchantID].merchantID = merchantID;\n        merchants[merchantID].visa = visa;\n        merchants[merchantID].salesPerson = salesPerson;\n        merchants[merchantID].bonusPayment = bonusPayment;\n        return true;\n    }\n\n    function getMerchant(string memory id) public view returns(string memory name,\n      string memory merchantID,\n      string memory visa,\n      string memory salesPerson,\n      string memory bonusPayment) {\n        return(merchants[id].name,\n        merchants[id].merchantID,\n        merchants[id].visa,\n        merchants[id].salesPerson,\n        merchants[id].bonusPayment);\n      }\n}\n",
  "sourcePath": "/Users/lightmac/Code/ecommerce/contracts/ecommerce.sol",
  "compiler": {
    "name": "solc",
    "version": "0.4.24+commit.e67f0147.Emscripten.clang"
  },
  "schemaVersion": "2.0.0",
  "updatedAt": "2019-01-01T08:08:08.122Z"
}